:020000040800F2
:1000000000500020911C00087D1A0008851A000885
:100010008D1A0008951A00089D1A000800000000BB
:10002000000000000000000000000000E17A00086D
:10003000A51A000800000000C17C0008097D000826
:10004000D91C0008D91C0008D91C0008D91C0008BC
:10005000D91C0008D91C0008D91C0008B11A0008D6
:10006000D91C0008D91C0008D91C0008D91C00089C
:10007000D91C0008D91C0008D91C0008D91C00088C
:10008000D91C0008D91C0008D91C0008D91C00087C
:10009000D91C0008D91C0008D91C0008D91C00086C
:1000A000D91C0008C11A0008D91C0008D91C000876
:1000B000D91C0008D91C0008D91C0008D91C00084C
:1000C000D91C0008D91C0008D91C0008D91C00083C
:1000D000D91C0008D51A0008D91C0008D91C000832
:1000E000E91A0008D91C0008D91C0008000000000B
:1000F0000000000000000000000000000000000000
:0C01000000000000000000005FF808F1A3
:1001100010B5054C237833B9044B13B10448AFF341
:1001200000800123237010BDEC01002000000000BE
:1001300020AF000808B5034B1BB103490348AFF3D8
:10014000008008BD00000000F001002020AF000882
:10015000034613F8012B002AFBD1181A0138704707
:1001600081F0004102E000BF83F0004330B54FEA68
:1001700041044FEA430594EA050F08BF90EA020FD5
:100180001FBF54EA000C55EA020C7FEA645C7FEA68
:10019000655C00F0E2804FEA5454D4EB5555B8BF8B
:1001A0006D420CDD2C4480EA020281EA030382EAFC
:1001B000000083EA010180EA020281EA0303362D8E
:1001C00088BF30BD11F0004F4FEA01314FF4801C61
:1001D0004CEA113102D0404261EB410113F0004F73
:1001E0004FEA03334CEA133302D0524263EB43032A
:1001F00094EA050F00F0A780A4F10104D5F1200EC8
:100200000DDB02FA0EFC22FA05F2801841F1000122
:1002100003FA0EF2801843FA05F359410EE0A5F1F6
:1002200020050EF1200E012A03FA0EFC28BF4CF027
:10023000020C43FA05F3C01851EBE37101F00045DD
:1002400007D54FF0000EDCF1000C7EEB00006EEBEA
:100250000101B1F5801F1BD3B1F5001F0CD3490874
:100260005FEA30004FEA3C0C04F101044FEA4452CB
:1002700012F5800F80F09A80BCF1004F08BF5FEA52
:10028000500C50F1000041EB045141EA050130BD32
:100290005FEA4C0C404141EB0101013C28BFB1F544
:1002A000801FE9D291F0000F04BF01460020B1FA8F
:1002B00081F308BF2033A3F10B03B3F120020CDA62
:1002C0000C3208DD02F1140CC2F10C0201FA0CF040
:1002D00021FA02F10CE002F11402D8BFC2F1200CA5
:1002E00001FA02F120FA0CFCDCBF41EA0C0190405B
:1002F000E41AA2BF01EB0451294330BD6FEA0404A4
:100300001F3C1CDA0C340EDC04F11404C4F120028E
:1003100020FA04F001FA02F340EA030021FA04F3A0
:1003200045EA030130BDC4F10C04C4F1200220FAF7
:1003300002F001FA04F340EA0300294630BD21FA35
:1003400004F0294630BD94F0000F83F4801306BFFB
:1003500081F480110134013D4EE77FEA645C18BFEF
:100360007FEA655C29D094EA050F08BF90EA020F86
:1003700005D054EA000C04BF1946104630BD91EA7E
:10038000030F1EBF0021002030BD5FEA545C05D181
:100390004000494128BF41F0004130BD14F58004C0
:1003A0003CBF01F5801130BD01F0004545F0FE4134
:1003B00041F470014FF0000030BD7FEA645C1ABF69
:1003C000194610467FEA655C1CBF0B46024650EAA0
:1003D000013406BF52EA033591EA030F41F40021CC
:1003E00030BD00BF90F0000F04BF0021704730B552
:1003F0004FF4806404F132044FF000054FF0000127
:1004000050E700BF90F0000F04BF0021704730B5E7
:100410004FF4806404F1320410F0004548BF4042BC
:100420004FF000013EE700BF42004FEAE2014FEA11
:1004300031014FEA02701FBF12F07F4393F07F4FEC
:1004400081F06051704732F07F4208BF704793F0EF
:100450007F4F04BF41F40021704730B54FF4607402
:1004600001F0004521F000411CE700BF50EA010205
:1004700008BF704730B54FF000050AE050EA0102AE
:1004800008BF704730B511F0004502D5404261EB1E
:1004900041014FF4806404F132045FEA915C3FF45F
:1004A000D8AE4FF003025FEADC0C18BF03325FEAFC
:1004B000DC0C18BF033202EBDC02C2F1200300FAAD
:1004C00003FC20FA02F001FA03FE40EA0E0021FAD2
:1004D00002F11444BDE600BF70B54FF0FF0C4CF4C0
:1004E000E06C1CEA11541DBF1CEA135594EA0C0F72
:1004F00095EA0C0F00F0DEF82C4481EA030621EAAD
:100500004C5123EA4C5350EA013518BF52EA0335E7
:1005100041F4801143F4801338D0A0FB02CE4FF099
:100520000005E1FB02E506F00042E0FB03E54FF0C9
:100530000006E1FB03569CF0000F18BF4EF0010EC1
:10054000A4F1FF04B6F5007F64F5407404D25FEABD
:100550004E0E6D4146EB060642EAC62141EA555170
:100560004FEAC52040EA5E504FEACE2EB4F1FD0CB2
:1005700088BFBCF5E06F1ED8BEF1004F08BF5FEA30
:10058000500E50F1000041EB045170BD06F00046E2
:1005900046EA010140EA020081EA0301B4EB5C048F
:1005A000C2BFD4EB0C0541EA045170BD41F4801187
:1005B0004FF0000E013C00F3AB8014F1360FDEBFAC
:1005C000002001F0004170BDC4F10004203C35DA88
:1005D0000C341BDC04F11404C4F1200500FA05F30B
:1005E00020FA04F001FA05F240EA020001F00042AC
:1005F00021F0004110EBD37021FA04F642EB060122
:100600005EEA430E08BF20EAD37070BDC4F10C044B
:10061000C4F1200500FA04F320FA05F001FA04F20F
:1006200040EA020001F0004110EBD37041F10001FB
:100630005EEA430E08BF20EAD37070BDC4F1200506
:1006400000FA05F24EEA020E20FA04F301FA05F26E
:1006500043EA020321FA04F001F0004121FA04F216
:1006600020EA020000EBD3705EEA430E08BF20EAE6
:10067000D37070BD94F0000F0FD101F00046400020
:1006800041EB010111F4801F08BF013CF7D041EAA2
:10069000060195F0000F18BF704703F000465200A6
:1006A00043EB030313F4801F08BF013DF7D043EA77
:1006B0000603704794EA0C0F0CEA135518BF95EA2D
:1006C0000C0F0CD050EA410618BF52EA4306D1D1B4
:1006D00081EA030101F000414FF0000070BD50EAD3
:1006E000410606BF1046194652EA430619D094EA5D
:1006F0000C0F02D150EA013613D195EA0C0F05D147
:1007000052EA03361CBF104619460AD181EA03019A
:1007100001F0004141F0FE4141F470014FF0000052
:1007200070BD41F0FE4141F4780170BD70B54FF0ED
:10073000FF0C4CF4E06C1CEA11541DBF1CEA13556D
:1007400094EA0C0F95EA0C0F00F0A7F8A4EB05044F
:1007500081EA030E52EA03354FEA013100F0888046
:100760004FEA03334FF0805545EA131343EA12630F
:100770004FEA022245EA111545EA10654FEA0026C4
:100780000EF000419D4208BF964244F1FD0404F57D
:10079000407402D25B084FEA3202B61A65EB0305D9
:1007A0005B084FEA32024FF480104FF4002CB6EB96
:1007B000020E75EB030E22BFB61A754640EA0C0016
:1007C0005B084FEA3202B6EB020E75EB030E22BF56
:1007D000B61A754640EA5C005B084FEA3202B6EB97
:1007E000020E75EB030E22BFB61A754640EA9C0056
:1007F0005B084FEA3202B6EB020E75EB030E22BF26
:10080000B61A754640EADC0055EA060E18D04FEAE3
:10081000051545EA16754FEA06164FEAC30343EA83
:1008200052734FEAC2025FEA1C1CC0D111F4801F50
:100830000BD141EA00014FF000004FF0004CB6E749
:1008400011F4801F04BF01430020B4F1FD0C88BFE8
:10085000BCF5E06F3FF6AFAEB5EB030C04BFB6EBF3
:10086000020C5FEA500C50F1000041EB045170BDE6
:100870000EF0004E4EEA113114EB5C04C2BFD4EB13
:100880000C0541EA045170BD41F480114FF0000E97
:10089000013C90E645EA060E8DE60CEA135594EA13
:1008A0000C0F08BF95EA0C0F3FF43BAF94EA0C0F16
:1008B0000AD150EA01347FF434AF95EA0C0F7FF48B
:1008C00025AF104619462CE795EA0C0F06D152EADF
:1008D00003353FF4FDAE1046194622E750EA4106C3
:1008E00018BF52EA43067FF4C5AE50EA41047FF4D4
:1008F0000DAF52EA43057FF4EBAE12E74FF0FF3C39
:1009000006E000BF4FF0010C02E000BF4FF0010C09
:100910004DF804CD4FEA410C7FEA6C5C4FEA430C82
:1009200018BF7FEA6C5C1BD001B050EA410C0CBFD1
:1009300052EA430C91EA030F02BF90EA020F002033
:10094000704710F1000F91EA030F58BF994208BF9A
:1009500090422CBFD8176FEAE37040F00100704757
:100960004FEA410C7FEA6C5C02D150EA013C07D1AE
:100970004FEA430C7FEA6C5CD6D152EA033CD3D0F9
:100980005DF8040B704700BF8446104662468C46F3
:100990001946634600E000BF01B5FFF7B7FF002826
:1009A00048BF10F1000F01BD4DF808EDFFF7F4FF4F
:1009B0000CBF012000205DF808FB00BF4DF808EDDA
:1009C000FFF7EAFF34BF012000205DF808FB00BFFD
:1009D0004DF808EDFFF7E0FF94BF012000205DF81F
:1009E00008FB00BF4DF808EDFFF7CEFF94BF0120D4
:1009F00000205DF808FB00BF4DF808EDFFF7C4FFCD
:100A000034BF012000205DF808FB00BF4FEA410C15
:100A10007FEA6C5C02D150EA013C0AD14FEA430CF8
:100A20007FEA6C5C02D152EA033C02D14FF0000035
:100A300070474FF0010070474FEA410212F5001273
:100A400015D211D56FF47873B3EB625212D94FEA15
:100A5000C12343F0004343EA505311F0004F23FAFF
:100A600002F018BF404270474FF00000704750EA54
:100A7000013005D111F0004008BF6FF00040704711
:100A80004FF00000704700BF80F0004002E000BF60
:100A900081F0004142001FBF5FEA410392EA030F69
:100AA0007FEA226C7FEA236C6AD04FEA1262D2EBB3
:100AB0001363C1BFD218414048404140B8BF5B42B8
:100AC000192B88BF704710F0004F40F4000020F051
:100AD0007F4018BF404211F0004F41F4000121F067
:100AE0007F4118BF494292EA030F3FD0A2F10102B1
:100AF00041FA03FC10EB0C00C3F1200301FA03F1EF
:100B000000F0004302D5494260EB4000B0F5000F11
:100B100013D3B0F1807F06D340084FEA310102F1D0
:100B20000102FE2A51D2B1F1004F40EBC25008BF82
:100B300020F0010040EA03007047490040EB00004C
:100B4000013A28BFB0F5000FEDD2B0FA80FCACF14D
:100B5000080CB2EB0C0200FA0CF0AABF00EBC2507A
:100B600052421843BCBFD0401843704792F0000F68
:100B700081F4000106BF80F400000132013BB5E7BB
:100B80004FEA41037FEA226C18BF7FEA236C21D031
:100B900092EA030F04D092F0000F08BF0846704796
:100BA00090EA010F1CBF0020704712F07F4F04D164
:100BB000400028BF40F00040704712F100723CBF77
:100BC00000F50000704700F0004343F0FE4040F4A1
:100BD000000070477FEA226216BF08467FEA23635F
:100BE0000146420206BF5FEA412390EA010F40F44A
:100BF000800070474FF0000304E000BF10F0004396
:100C000048BF40425FEA000C08BF704743F096437C
:100C100001464FF000001CE050EA010208BF704797
:100C20004FF000030AE000BF50EA010208BF70471E
:100C300011F0004302D5404261EB41015FEA010C33
:100C400002BF84460146002043F0B64308BFA3F12B
:100C50008053A3F50003BCFA8CF2083AA3EBC2530D
:100C600010DB01FA02FC634400FA02FCC2F120022C
:100C7000BCF1004F20FA02F243EB020008BF20F063
:100C80000100704702F1200201FA02FCC2F12002C9
:100C900050EA4C0021FA02F243EB020008BF20EABE
:100CA000DC7070474FF0FF3C06E000BF4FF0010CD6
:100CB00002E000BF4FF0010C4DF804CD4FEA4002B6
:100CC0004FEA41037FEA226C18BF7FEA236C11D000
:100CD00001B052EA530C18BF90EA010F58BFB2EBB3
:100CE000030088BFC81738BF6FEAE17018BF40F033
:100CF000010070477FEA226C02D15FEA402C05D1E7
:100D00007FEA236CE4D15FEA412CE1D05DF8040B6B
:100D1000704700BF844608466146FFE70FB5FFF7FE
:100D2000C9FF002848BF10F1000F0FBD4DF808EDB6
:100D3000FFF7F4FF0CBF012000205DF808FB00BFA7
:100D40004DF808EDFFF7EAFF34BF012000205DF801
:100D500008FB00BF4DF808EDFFF7E0FF94BF01204E
:100D600000205DF808FB00BF4DF808EDFFF7D2FF4B
:100D700094BF012000205DF808FB00BF4DF808ED8E
:100D8000FFF7C8FF34BF012000205DF808FB00BF5B
:100D90004FEA4002B2F1FE4F0FD34FF09E03B3EB88
:100DA00012620DD94FEA002343F0004310F0004FC8
:100DB00023FA02F018BF404270474FF0000070471E
:100DC00012F1610F01D1420205D110F0004008BFBD
:100DD0006FF0004070474FF00000704742000ED2A5
:100DE000B2F1FE4F0BD34FF09E03B3EB126209D466
:100DF0004FEA002343F0004323FA02F070474FF01C
:100E00000000704712F1610F01D1420202D14FF090
:100E1000FF3070474FF00000704700BF80B485B0CE
:100E200000AFF860B9607A60FB68064A1A60BB6878
:100E3000054A1A607B6880221A6000BF1437BD46DD
:100E400080BC704708020020A8020020B0B598B00E
:100E500000AF01F039FA00F06FF800F06DF900F022
:100E6000C7F800F0F3F800F03DF9012228492948BD
:100E700004F065F8284803F097FB01F0D2F900234D
:100E8000BB650023FB6507F158030121184604F0F8
:100E90008AFE0346214A1360214B07F13C041D469C
:100EA0000FCD0FC495E8070084E8070007F13C0365
:100EB0000021184604F017FE03461A4A13601A4B25
:100EC00007F120041D460FCD0FC495E8070084E804
:100ED000070007F120030021184604F004FE034632
:100EE000124A1360124B3C1D1D460FCD0FC495E8EE
:100EF000070084E807003B1D0021184604F0F3FDBD
:100F000003460C4A136004F0E7FD00BFFDE700BF95
:100F10009C05002044050020FC04002098050020CA
:100F200044AF00088C0500206CAF0008900500203D
:100F300094AF00089405002080B594B000AF07F18D
:100F4000280328220021184607F0C1FE07F11403E8
:100F500000221A605A609A60DA601A613B1D002212
:100F60001A605A609A60DA600123BB624FF48033E2
:100F7000FB6200233B630123BB6302237B644FF4CA
:100F80008033BB644FF4E013FB6407F12803184679
:100F900002F0C4FD0346002B01D000F011FC0F232A
:100FA0007B610223BB610023FB614FF480633B62E2
:100FB00000237B6207F114030221184603F030F886
:100FC0000346002B01D000F0FBFB02237B604FF4B3
:100FD0000043FB603B1D184603F0E0F90346002B7D
:100FE00001D000F0EDFB00BF5037BD4680BD0000D2
:100FF00080B500AF124B134A1A60114B124A5A6067
:101000000F4B00229A600E4B0022DA600C4B4FF41B
:1010100080421A610A4B00225A61094B00229A61F0
:10102000074B0022DA61064B00221A62044801F0E5
:101030002BFD0346002B01D000F0C2FB00BF80BD9A
:10104000A804002000540040801A060080B586B035
:1010500000AF07F1080300221A605A609A60DA6054
:101060003B4600221A605A601D4B4FF080421A60C6
:101070001B4B47225A601A4B00229A60184B4FF6BE
:10108000FF72DA60164B00221A61154B00229A613A
:10109000134803F039FA0346002B01D000F090FB0F
:1010A0004FF48053BB6007F1080319460C4803F066
:1010B0001FFC0346002B01D000F082FB00233B60A5
:1010C00000237B603B461946054803F0F5FD0346C7
:1010D000002B01D000F074FB00BF1837BD4680BD67
:1010E000FC04002080B500AF114B124A1A60104B6F
:1010F0004FF416525A600E4B00229A600C4B00229D
:10110000DA600B4B00221A61094B0C225A61084B22
:1011100000229A61064B0022DA61054803F03CFE8A
:101120000346002B01D000F04BFB00BF80BD00BF89
:10113000440500200038014080B588B000AF07F1B9
:10114000100300221A605A609A60DA60514B9B6962
:10115000504A43F0100393614E4B9B6903F0100318
:10116000FB60FB684B4B9B694A4A43F02003936149
:10117000484B9B6903F02003BB60BB68454B9B69F0
:10118000444A43F004039361424B9B6903F0040318
:101190007B607B683F4B9B693E4A43F00803936149
:1011A0003C4B9B6903F008033B603B6800224FF413
:1011B0000051394801F037FC01226021374801F025
:1011C00032FC01224FF44051354801F02CFC4FF421
:1011D00000533B6101237B610023BB610223FB6160
:1011E00007F1100319462C4801F082FA02233B61F3
:1011F0002C4B7B610123BB6107F110031946274883
:1012000001F076FA60233B6101237B610023BB611F
:101210000223FB6107F110031946204801F068FA28
:1012200002233B6100237B610023BB6107F11003B4
:1012300019461B4801F05CFA80233B6100237B6167
:101240000023BB6107F110031946144801F050FA5E
:101250004FF440533B61134B7B610123BB6107F1AA
:10126000100319460E4801F043FA00220721072017
:1012700001F053F9072001F06CF900220621282023
:1012800001F04BF9282001F064F900BF2037BD467A
:1012900080BD00BF00100240001001400008014066
:1012A000000C01400000211080B582B000AF034661
:1012B000FB80FB88022B14D1214B02225A610620AD
:1012C00001F055F91F4B1B68002B0CBF01230023B5
:1012D000DBB21A461B4B1A60012220211A4801F08A
:1012E000A2FBFB88B3F5805F10D1154B4FF4805201
:1012F0005A61062001F03BF9144B1B68002B0CBF10
:1013000001230023DBB21A46104B1A60FB88B3F5A9
:10131000005F10D10A4B4FF400525A61062001F0D1
:1013200026F90B4B1B68002B0CBF01230023DBB2FB
:101330001A46074B1A6000BF0837BD4680BD00BF84
:1013400000040140C005002000080140C405002041
:10135000C805002080B582B000AF78607B681B684C
:10136000124A93421ED1124B1B7803F00203002B4A
:1013700003D0104B01221A6002E00E4B00221A60CB
:101380000B4B1B7803F00103002B03D00A4B012207
:101390001A6002E0084B00221A60012204497868B2
:1013A00003F0CDFD00BF0837BD4680BD00380140C9
:1013B0009C050020C8050020C405002080B586B02B
:1013C00004AF78602F4B1B684FF0FF31184604F0D4
:1013D0001DFC2D4B02932D4B01932D4B00932D4B58
:1013E0002D4A2E492E4800F049FE2B4B1B781A46F9
:1013F0002A4B1B782B492C4807F006FC01210020C2
:1014000000F0F0FE284800F049FF214B1B781A46F7
:101410001E4B1B7819461C4B1B7800930B46234927
:10142000214807F0F1FB0821002000F0DBFE1E48F8
:1014300000F034FF1E491F4800F0EAFC1D4B1B68FA
:10144000184600F021FD1A4B1B68184600F080FD7D
:101450000221194801F0D0FA03461A46174B1A60C8
:101460008021174801F0C8FA03461A46154B1A6046
:10147000044B1B68184604F017FC642004F07FFB43
:1014800000BF9FE798050020BD050020BC05002097
:10149000BB050020BA050020B9050020B8050020D2
:1014A000B7050020B0AF0008A8050020BCAF0008B9
:1014B000D4050020D0050020000C014000000020D1
:1014C00000080140CC05002080B582B000AF7860F4
:1014D000694B1B684FF0FF31184604F097FB674BD0
:1014E0001B68002B68D101224FF40051644801F0C1
:1014F0009AFA644B1B68002B43D1634B1B6863490A
:101500001846FFF73BFC0346002B08D1604B1B68D5
:1015100060491846FFF714FC0346002B04D0002254
:1015200020215D4801F07FFA5C4B1B68012B04D140
:1015300000222021584801F076FA594B1B68002BF5
:1015400004D101222021544801F06DFA4E4B1B6852
:101550004E491846FFF7FEFB0346002B11D04C4BBB
:101560001B684C491846FFF7FFFB0346002B08D0C9
:101570004A4B1B68002B04D101222021464801F070
:1015800052FA484B1B68012B04D1002240214248EB
:1015900001F049FA434B1B68002B04D10122402182
:1015A0003D4801F040FA374B1B68012B04D1002263
:1015B0002021394801F037FA304B1B68012B51D1FB
:1015C00000224FF400512E4801F02DFA2D4B1B68DC
:1015D000002B18D1344B1B781A46344B1B689A42A7
:1015E0000CD1334B1B781A46324B1B689A4205D1FB
:1015F00000222021284801F016FA04E001222021CF
:10160000254801F010FA274B1B68002B18D1264BF8
:101610001B781A46284B1B689A4206DA224B1B7825
:101620001A46264B1B689A4205DC002240211A48C4
:1016300001F0F9F904E001224021174801F0F3F923
:10164000184B1B68012B04D100224021124801F0E5
:10165000EAF90C4B1B68012B04D1002220210E4813
:1016600001F0E1F9044B1B68184604F01DFB6420EF
:1016700004F085FA2CE700BF98050020C005002083
:1016800000100140C8050020D005002000000C42D9
:10169000D40500200000484200080140CC0500208D
:1016A00000000020C4050020B90500200C00002027
:1016B000B8050020100000200400002008000020D1
:1016C00080B582B000AF78602A4B1B684FF0FF31C5
:1016D000184604F09BFA284B02221A70274B1B680D
:1016E0001846FFF77BFB0346DAB2234B5A70244BB4
:1016F0001B681846FFF772FB0346DAB21E4B9A705E
:101700002021204801F078F903461A461E4B1A7032
:1017100040211C4801F070F903461A461B4B1A7011
:10172000194B1B78DB005AB2184B1B789B005BB23D
:1017300013435AB2164B1B685B005BB213435AB299
:10174000144B1B685BB213435BB2DAB20A4BDA701C
:101750004FF0FF33042208490F4803F06DFB054B9F
:101760001B68184604F0A0FA4FF47A7004F007FAE8
:1017700000BFA9E798050020A0050020D40500209F
:10178000D005002000080140A4050020A505002088
:10179000CC050020000000204405002080B582B068
:1017A00000AF78607B681B68044A934201D100F067
:1017B000A1FD00BF0837BD4680BD00BF002C014021
:1017C00080B400AF72B600BF00BFFDE780B584B043
:1017D00000AF184B9B69174A43F001039361154B07
:1017E0009B6903F00103BB60BB68124BDB69114AC4
:1017F00043F08053D3610F4BDB6903F080537B6070
:101800007B6800220F216FF0010000F086FE0A4B7A
:101810005B68FB60FB6823F0E063FB60FB6843F000
:101820000073FB60044AFB68536000BF1037BD467D
:1018300080BD00BF001002400000014080B588B0AC
:1018400000AF786007F1100300221A605A609A60B6
:10185000DA607B681B68154A934223D1144B9B695D
:10186000134A43F008039361114B9B6903F008038B
:10187000FB60FB68C0233B6112237B610323FB6198
:1018800007F1100319460B4800F032FF084BDB69E3
:10189000074A43F40013D361054BDB6903F40013DB
:1018A000BB60BB6800BF2037BD4680BD0054004010
:1018B00000100240000C014080B485B000AF786099
:1018C0007B681B68B3F1804F0BD1084BDB69074A7B
:1018D00043F00103D361054BDB6903F00103FB60B7
:1018E000FB6800BF1437BD4680BC70470010024043
:1018F00080B588B000AF786007F1100300221A604D
:101900005A609A60DA607B681B68204A934239D13A
:101910001F4B9B691E4A43F4804393611C4B9B6998
:1019200003F48043FB60FB68194B9B69184A43F042
:1019300004039361164B9B6903F00403BB60BB680F
:101940004FF400733B6102237B610323FB6107F1CA
:10195000100319460F4800F0CBFE4FF480633B6143
:1019600000237B610023BB6107F11003194609487E
:1019700000F0BEFE00220721252000F0CEFD25202C
:1019800000F0E7FD00BF2037BD4680BD00380140B4
:10199000001002400008014080B58CB000AF7860B4
:1019A0000023BB6200237B62002387F82F302E4B7D
:1019B0009B692D4A43F4006393612B4B9B6903F4AD
:1019C0000063BB60BB6807F10C0207F1100311460E
:1019D000184602F095FC02F07FFCB862BB6A234A0D
:1019E000A2FB03239B0C013B7B62214B214A1A6023
:1019F0001F4B40F2E732DA601D4A7B6A53601C4B92
:101A000000221A611A4B00229A60194B00229A6137
:101A1000174802F079FD034687F82F3097F82F30EA
:101A2000002B1BD1124802F009FE034687F82F3025
:101A300097F82F30002B11D1192000F08AFD7B6818
:101A40000F2B08D800227968192000F066FD0A4A99
:101A50007B68136002E0012387F82F3097F82F305E
:101A600018463037BD4680BD0010024083DE1B4360
:101A7000D8050020002C01401800002080B400AFE1
:101A800000BFFDE780B400AF00BFFDE780B400AF4A
:101A900000BFFDE780B400AF00BFFDE780B400AF3A
:101AA00000BFFDE780B400AF00BFBD4680BC7047FB
:101AB00080B500AF022000F0CFFF00BF80BD000066
:101AC00080B500AF024802F00BFE00BF80BD00BF32
:101AD000D805002080B500AF024803F055FA00BFDA
:101AE00080BD00BF4405002080B500AF4FF480509A
:101AF00000F0B2FF4FF4005000F0AEFF00BF80BD19
:101B000080B400AF01231846BD4680BC704780B545
:101B100082B000AF7860396007F082F90346162280
:101B20001A604FF0FF3318460837BD4680BD80B5B8
:101B300082B000AF78604FF0FF317868FFF7E7FFC1
:101B400000BFFDE780B586B000AFF860B9607A608D
:101B500000237B610AE0AFF300800146BB685A1C9A
:101B6000BA60CAB21A707B6901337B617A697B689B
:101B70009A42F0DB7B6818461837BD4680BD80B5B9
:101B800086B000AFF860B9607A6000237B6109E03D
:101B9000BB685A1CBA601B781846AFF300807B699B
:101BA00001337B617A697B689A42F1DB7B68184676
:101BB0001837BD4680BD80B483B000AF78604FF069
:101BC000FF3318460C37BD4680BC704780B483B0E5
:101BD00000AF786039603B684FF400525A600023D0
:101BE00018460C37BD4680BC704780B483B000AF48
:101BF0007860012318460C37BD4680BC704780B41E
:101C000085B000AFF860B9607A60002318461437D9
:101C1000BD4680BC7047000080B586B000AF7860DC
:101C2000144A154BD31A7B617B693B61134B1B68CC
:101C3000002B02D1114B124A1A60104B1A687B68B4
:101C400013443A699A4207D207F0EAF803460C2295
:101C50001A604FF0FF3309E0084B1B68FB60074B2D
:101C60001A687B681344054A1360FB6818461837E6
:101C7000BD4680BD0050002000040000200600206A
:101C8000C014002080B400AF00BFBD4680BC7047C8
:101C9000FFF7F8FF0B480C490C4A002302E0D45828
:101CA000C4500433C4188C42F9D3094A094C0023A8
:101CB00001E013600432A242FBD307F0B7F8FFF74C
:101CC000C5F8704700000020EC01002080B3000838
:101CD000EC010020C0140020FEE7000080B584B0B5
:101CE00000AF3B4600221A605A609A60DA60012316
:101CF0003B6001237B600223FB603B4619460B4897
:101D000000F0F6FC00220121084800F08CFE1220B1
:101D100000F00CFB01220121044800F084FE142095
:101D200000F07AF900BF1037BD4680BD000C0140BD
:101D300080B586B000AF0023FB753B1D00221A6002
:101D40005A609A60DA6001237B600023BB60002345
:101D5000FB603B1D19460F4800F0CAFC01210D48ED
:101D600000F04AFE0346002B0ED1502000F054F93B
:101D70000121084800F040FE0346002B01D001235A
:101D8000FB75502000F048F9FB7D18461837BD461A
:101D900080BD00BF000C014080B582B000AF0023C1
:101DA000BB710023FB7128E000BF0121174800F040
:101DB00023FE0346002BF8D01E2000F02DF9012150
:101DC000124800F019FE0346002B0BD0FB79C3F13B
:101DD0000703012202FA03F35AB297F906301343BC
:101DE0005BB2BB7100BF0121084800F005FE03464D
:101DF000002BF8D1FB790133FB71FB79072BD3D989
:101E0000BB7918460837BD4680BD00BF000C0140B5
:101E100080B584B000AF78603960FFF75FFFFFF7EF
:101E200087FF0346002B2BD0FFF7B6FF0346FB735B
:101E3000FFF7B2FF0346BB73FFF7AEFF03467B73AA
:101E4000FFF7AAFF03463B73FFF7A6FF0346FB72AB
:101E5000FA7AF97BBB7B19447B7B19443B7B0B44AF
:101E60009A420DD1FB7B1846FEF7C4FE02463B6842
:101E70001A607B7B1846FEF7BDFE02467B681A603F
:101E800000BF1037BD4680BD80B58AB000AF786016
:101E90002D4BFB6007F1100300221A605A609A6014
:101EA000DA6003237B627868FEF772FF03463B62C9
:101EB0000221012000F096F93B6A002B08D17B6AD1
:101EC0005A1C7A6228333B44302203F81C2C29E048
:101ED0003B6A092B10DD3B6A1C4A82FB03129210FD
:101EE000DB17D31ADAB27B6A591C79623032D2B26C
:101EF00028333B4403F81C2C3A6A144B83FB02132F
:101F00009910D317C91A0B469B000B445B00D11ADA
:101F1000CAB27B6A591C79623032D2B228333B4450
:101F200003F81C2C07F10C027B6A134400221A7080
:101F300007F10C03184600F0B1F9432000F022F934
:101F400000BF2837BD4680BD54453A0067666666C7
:101F500080B58AB000AF78602D4BFB6007F11003AD
:101F600000221A605A609A60DA6003237B62786804
:101F7000FEF70EFF03463B620921012000F032F913
:101F80003B6A002B08D17B6A5A1C7A6228333B4497
:101F9000302203F81C2C29E03B6A092B10DD3B6A38
:101FA0001C4A82FB03129210DB17D31ADAB27B6A47
:101FB000591C79623032D2B228333B4403F81C2CCE
:101FC0003A6A144B83FB02139910D317C91A0B46B4
:101FD0009B000B445B00D11ACAB27B6A591C796220
:101FE0003032D2B228333B4403F81C2C07F10C02E8
:101FF0007B6A134400221A7007F10C03184600F0A4
:102000004DF9252000F0BEF800BF2837BD4680BD41
:1020100048553A006766666680B483B000AF0346F1
:10202000FB80084B1B6800225A6200BF054B1B68EF
:102030005A6AFB889A42F9D300BF00BF0C37BD46ED
:1020400080BC7047FC04002080B485B000AF03461C
:10205000FB71FB791B09DBB21A46920013445B004B
:10206000DAB2FB7903F00F03DBB21344FB73FB7BA3
:1020700018461437BD4680BC7047000080B58AB052
:1020800004AFF860B9607A603B604FF47A730293F2
:102090000723019307F11003009301230022D021AD
:1020A0001F4800F033FF3B7C1846FFF7CDFF034687
:1020B000DAB2FB681A707B7C1846FFF7C5FF03464F
:1020C000DAB2BB681A70BB7C1846FFF7BDFF034647
:1020D000DAB27B681A70FB7C1846FFF7B5FF03463F
:1020E000DAB23B681A703B7D1846FFF7ADFF034636
:1020F000DAB23B6A1A707B7D1846FFF7A5FF0346EC
:10210000DAB27B6A1A70BB7D1846FFF79DFF034663
:10211000DAB2BB6A1A7000BF1837BD4680BD00BF77
:10212000A804002080B586B002AF0346FB71FB799E
:1021300023F00F03FB73FB791B01BB73FB7B43F0A5
:102140000C03DBB23B72FB7B43F00803DBB27B7218
:10215000BB7B43F00C03DBB2BB72BB7B43F00803D9
:10216000DBB2FB7207F108026423009304234E21C3
:10217000034800F0CDFD00BF1037BD4680BD00BF55
:10218000A804002080B586B002AF0346FB71FB793E
:1021900023F00F03FB73FB791B01BB73FB7B43F045
:1021A0000D03DBB23B72FB7B43F00903DBB27B72B6
:1021B000BB7B43F00D03DBB2BB72BB7B43F0090377
:1021C000DBB2FB7207F108026423009304234E2163
:1021D000034800F09DFD00BF1037BD4680BD00BF25
:1021E000A804002080B582B000AF786039607B68B9
:1021F000002B03D07B68012B05D009E03B6843F03E
:1022000080033B6004E03B6843F0C0033B6000BFD9
:102210003B68DBB21846FFF785FF00BF0837BD46B5
:1022200080BD80B500AF322000F080F83020FFF78D
:1022300079FF052000F07AF83020FFF773FF0120C6
:1022400000F074F83020FFF76DFF0A2000F06EF800
:102250002020FFF767FF0A2000F068F82820FFF72A
:1022600061FF012000F062F80820FFF75BFF01200A
:1022700000F05CF80120FFF755FF012000F056F850
:10228000012000F053F80620FFF74CFF012000F07A
:102290004DF80C20FFF746FF00BF80BD80B582B02F
:1022A00000AF786006E07B685A1C7A601B7818469D
:1022B000FFF768FF7B681B78002BF4D100BF00BFDD
:1022C0000837BD4680BD000080B500AF084B1B68D5
:1022D000074A43F010031360032000F013F90F20A6
:1022E000FFF75AFBFFF772FA0023184680BD00BFC4
:1022F0000020024080B400AF054B1B781A46054B06
:102300001B681344034A136000BFBD4680BC70477E
:102310001C0000202406002080B400AF024B1B6884
:102320001846BD4680BC70472406002080B584B0A6
:1023300000AF7860FFF7F0FFB8607B68FB60FB6878
:10234000B3F1FF3F05D00A4B1B781A46FB681344D4
:10235000FB6000BFFFF7E0FF0246BB68D31AFA68D4
:102360009A42F7D800BF00BF1037BD4680BD00BFFE
:102370001C00002080B485B000AF78607B6803F05B
:102380000703FB600C4BDB68BB60BA684FF6FF03CA
:102390001340BB60FB681A02BB68134343F0BF6382
:1023A00043F40033BB60044ABB68D36000BF1437FA
:1023B000BD4680BC704700BF00ED00E080B400AFB8
:1023C000044BDB681B0A03F007031846BD4680BCBC
:1023D000704700BF00ED00E080B483B000AF03465B
:1023E000FB7197F90730002B0BDBFB7903F01F0221
:1023F000064997F907305B09012000FA02F241F81B
:10240000232000BF0C37BD4680BC704700E100E0D0
:1024100080B483B000AF0346FB7197F90730002BFF
:102420000CDBFB7903F01F02074997F907305B09C2
:10243000012000FA02F2603341F8232000BF0C377C
:10244000BD4680BC704700BF00E100E080B483B0AF
:1024500000AF03463960FB7197F90730002B0ADBA8
:102460003B68DAB20C4997F907301201D2B20B443B
:1024700083F800230AE03B68DAB20849FB7903F0ED
:102480000F03043B1201D2B20B441A7600BF0C3783
:10249000BD4680BC704700BF00E100E000ED00E0F9
:1024A00080B489B000AFF860B9607A60FB6803F06F
:1024B0000703FB61FB69C3F10703042B28BF042357
:1024C000BB61FB690433062B02D9FB69033B00E0C7
:1024D00000237B614FF0FF32BB6902FA03F3DA435A
:1024E000BB681A407B699A404FF0FF317B6901FA63
:1024F00003F3D9437B680B40134318462437BD468A
:1025000080BC704780B582B000AF78607868FFF714
:1025100031FF00BF0837BD4680BD80B586B000AF33
:102520000346B9607A60FB7300237B61FFF746FFC7
:1025300078617A68B9687869FFF7B2FF024697F95F
:102540000F3011461846FFF781FF00BF1837BD4610
:1025500080BD80B582B000AF0346FB7197F90730AC
:102560001846FFF739FF00BF0837BD4680BD80B56C
:1025700082B000AF0346FB7197F907301846FFF7AA
:1025800047FF00BF0837BD4680BD80B485B000AFAF
:1025900078600023FB737B6893F82130DBB2022B59
:1025A00008D07B6804229A637B68002283F820208D
:1025B000012320E07B681B681A687B681B6822F097
:1025C0000E021A607B681B681A687B681B6822F021
:1025D00001021A607B681A6C7B68DB6B012101FACF
:1025E00002F25A607B68012283F821207B68002276
:1025F00083F82020FB7B18461437BD4680BC70470B
:1026000080B584B000AF78600023FB737B6893F8DB
:102610002130DBB2022B05D07B6804229A630123B0
:10262000FB7351E07B681B681A687B681B6822F0AB
:102630000E021A607B681B681A687B681B6822F0B0
:1026400001021A607B681B68224A934229D07B688A
:102650001B68214A934222D07B681B681F4A934221
:102660001AD07B681B681E4A934212D07B681B6895
:102670001C4A93420AD07B681B681B4A934202D1D2
:102680004FF480130EE04FF080730BE04FF4803373
:1026900008E04FF4805305E04FF4807302E010230C
:1026A00000E00123114A53607B68012283F8212056
:1026B0007B68002283F820207B685B6B002B03D0B3
:1026C0007B685B6B78689847FB7B18461037BD4684
:1026D00080BD00BF080002401C00024030000240E4
:1026E00044000240580002406C00024000000240DA
:1026F00080B48BB000AF7860396000237B62002328
:102700003B6269E101227B6A02FA03F3FB613B68E9
:102710001B68FA691340BB61BA69FB699A4240F0D1
:1027200058813B685B689A4A93425ED0984A9342CC
:1027300075D8984A934258D0964A93426FD8964A91
:10274000934252D0944A934269D8944A93424CD0CF
:10275000924A934263D8924A934246D0904A934217
:102760005DD8122B2AD8122B59D801A252F823F087
:10277000EB270008C5270008D727000819280008FC
:102780001F2800081F2800081F2800081F2800080D
:102790001F2800081F2800081F2800081F280008FD
:1027A0001F2800081F2800081F2800081F280008ED
:1027B0001F280008CD270008E1270008794A934226
:1027C00013D02CE03B68DB683B6229E03B68DB68A8
:1027D00004333B6224E03B68DB6808333B621FE064
:1027E0003B68DB680C333B621AE03B689B68002B5C
:1027F00002D104233B6213E03B689B68012B05D1A7
:1028000008233B627B68FA691A6109E008233B628E
:102810007B68FA695A6103E000233B6200E000BF75
:10282000BB69FF2B01D87B6801E07B6804337B61C7
:10283000BB69FF2B02D87B6A9B0002E07B6A083BE6
:102840009B003B617B691A680F213B6901FA03F326
:10285000DB431A40396A3B6901FA03F31A437B6987
:102860001A603B685B6803F08053002B00F0B18076
:102870004D4B9B694C4A43F0010393614A4B9B6962
:1028800003F00103BB60BB68484A7B6A9B080233C4
:1028900052F82330FB607B6A03F003039B000F2296
:1028A00002FA03F3DB43FA681340FB607B68404A9B
:1028B000934213D07B683F4A93420DD07B683E4AD7
:1028C000934207D07B683D4A934201D1032306E03F
:1028D000042304E0022302E0012300E000237A6ADB
:1028E00002F0030292009340FA681343FB602F4901
:1028F0007B6A9B080233FA6841F823203B685B68D7
:1029000003F48013002B06D02D4B9A682C49BB6929
:1029100013438B6006E02A4B9A68BB69DB43284966
:1029200013408B603B685B6803F40013002B06D0F8
:10293000234BDA682249BB691343CB6006E0204B86
:10294000DA68BB69DB431E491340CB603B685B68B8
:1029500003F40033002B06D0194B5A681849BB69A1
:1029600013434B6006E0164B5A68BB69DB431449BE
:1029700013404B603B685B6803F48033002B21D02D
:102980000F4B1A680E49BB6913430B6021E000BF6F
:102990000000321000003110000022100000211051
:1029A0000000121000001110001002400000014051
:1029B00000080140000C01400010014000140140DB
:1029C000000401400B4B1A68BB69DB430949134003
:1029D0000B607B6A01337B623B681A687B6A22FA70
:1029E00003F3002B7FF48EAE00BF00BF2C37BD4633
:1029F00080BC70470004014080B485B000AF7860AF
:102A00000B467B807B689A687B881340002B02D042
:102A10000123FB7301E00023FB73FB7B1846143793
:102A2000BD4680BC704780B483B000AF78600B4671
:102A30007B8013467B707B78002B03D07A887B6881
:102A40001A6103E07B881A047B681A6100BF0C37A7
:102A5000BD4680BC7047000080B582B000AF034621
:102A6000FB80084B5A69FB881340002B06D0054AAF
:102A7000FB885361FB881846FEF716FC00BF083739
:102A8000BD4680BD0004014080B584B000AF7860D1
:102A90007B68002B01D101232BE17B6893F83D304B
:102AA000DBB2002B06D17B68002283F83C207868DB
:102AB000FEF7C4FE7B68242283F83D207B681B68F8
:102AC0001A687B681B6822F001021A607B681B6829
:102AD0001A687B681B6842F400421A607B681B68B6
:102AE0001A687B681B6822F400421A6001F0E0FB60
:102AF000F8607B685B68814A934207D8FB68804A2C
:102B0000934294BF01230023DBB206E0FB687D4AB9
:102B1000934294BF01230023DBB2002B01D0012399
:102B2000E7E0FB68784AA2FB03239B0CBB607B6851
:102B30001B685B6823F03F017B681B68BA680A4327
:102B40005A607B681B681B6A23F03F017B685B68E7
:102B50006A4A934202D8BB68013309E0BB684FF46C
:102B6000967202FB03F3694AA2FB03239B0901331C
:102B70007A6812680B4313627B681B68DB6923F475
:102B80004F4222F0FF027B685B685C498B4219D898
:102B9000FB68591E7B685B685B00B1FBF3F3591C53
:102BA00040F6FC730B40002B0AD0FB68591E7B6873
:102BB0005B685B00B1FBF3F30133C3F30B0351E03C
:102BC00004234FE07B689B68002B11D1FB68581EE3
:102BD0007B6859680B465B000B44B0FBF3F3013391
:102BE000C3F30B03002B0CBF01230023DBB212E065
:102BF000FB68581E7B6859680B469B000B44990084
:102C00000B44B0FBF3F30133C3F30B03002B0CBFF6
:102C100001230023DBB2002B01D0012322E07B68DB
:102C20009B68002B0ED1FB68581E7B6859680B46C9
:102C30005B000B44B0FBF3F30133C3F30B0343F42A
:102C400000430FE0FB68581E7B6859680B469B00E9
:102C50000B4499000B44B0FBF3F30133C3F30B03B4
:102C600043F44043796809681343CB617B681B6870
:102C70001B6823F0C0017B68DA697B681B6A1A4312
:102C80007B681B680A431A607B681B689B6823F497
:102C9000034323F0FF037A6811697A68D26811430D
:102CA0007A6812680B4393607B681B68DB6823F0CB
:102CB000FF017B685A697B689B691A437B681B68C4
:102CC0000A43DA607B681B681A687B681B6842F0FD
:102CD00001021A607B6800221A647B68202283F854
:102CE0003D207B6800221A637B68002283F83E2027
:102CF000002318461037BD4680BD00BFA0860100E6
:102D00007F841E00FF083D0083DE1B43D34D62100D
:102D100080B588B002AFF8607A601A460B467B81B6
:102D200013463B81FFF7F8FA7861FB6893F83D3072
:102D3000DBB2202B40F0E0807B6900931923012255
:102D40007049F86800F0B4FC0346002B01D0022360
:102D5000D3E0FB6893F83C30012B01D10223CCE097
:102D6000FB68012283F83C20FB681B681B6803F0AA
:102D70000103012B07D0FB681B681A68FB681B68FE
:102D800042F001021A60FB681B681A68FB681B6846
:102D900022F400621A60FB68212283F83D20FB6860
:102DA000102283F83E20FB6800221A64FB687A68D0
:102DB0005A62FB683A895A85FB685B8D9AB2FB6858
:102DC0001A85FB68504ADA6279897B693A6AF86841
:102DD00000F004FB0346002B01D001238DE000230B
:102DE0003B61FB681B685B693B61FB681B689B6917
:102DF0003B613B6966E07A69396AF86800F072FD08
:102E00000346002B0DD0FB681B6C042B07D1FB681D
:102E10001B681A68FB681B6842F400721A60012381
:102E20006BE0FB685B6A1A78FB681B681A61FB68D9
:102E30005B6A5A1CFB685A62FB685B8D9BB2013B64
:102E40009AB2FB685A85FB681B8D013B9AB2FB68FE
:102E50001A85FB681B685B6903F00403042B1BD114
:102E6000FB681B8D002B17D0FB685B6A1A78FB6828
:102E70001B681A61FB685B6A5A1CFB685A62FB6834
:102E80005B8D9BB2013B9AB2FB685A85FB681B8D38
:102E9000013B9AB2FB681A857A69396AF86800F0D2
:102EA00069FD0346002B0DD0FB681B6C042B07D17A
:102EB000FB681B681A68FB681B6842F400721A60A2
:102EC00001231AE0FB681B8D002B94D1FB681B6863
:102ED0001A68FB681B6842F400721A60FB682022C3
:102EE00083F83D20FB68002283F83E20FB68002227
:102EF00083F83C20002300E0022318461837BD4623
:102F000080BD00BF020010000000FFFF80B58CB044
:102F100002AFF860084611461A4603467B810B460D
:102F20003B811346FB8000233B62FFF7F5F9786293
:102F3000FB6893F83D30DBB2202B40F044827B6A83
:102F40000093192301228249F86800F0B1FB03467F
:102F5000002B01D0022337E2FB6893F83C30012BB1
:102F600001D1022330E2FB68012283F83C20FB6898
:102F70001B681B6803F00103012B07D0FB681B686B
:102F80001A68FB681B6842F001021A60FB681B6844
:102F90001A68FB681B6822F400621A60FB68222230
:102FA00083F83D20FB68402283F83E20FB68002226
:102FB0001A64FB683A6B5A62FB68BA8E5A85FB68E2
:102FC0005B8D9AB2FB681A85FB68624ADA62F88800
:102FD0003A8979897B6A0193BB6B00930346F86851
:102FE00000F07EFA0346002B01D00123ECE1FB68E0
:102FF0001B8D002B13D10023FB61FB681B685B69F1
:10300000FB61FB681B689B69FB61FB69FB681B68D4
:103010001A68FB681B6842F400721A60C0E1FB6822
:103020001B8D012B1ED1FB681B681A68FB681B688F
:1030300022F480621A6072B600BF0023BB61FB6895
:103040001B685B69BB61FB681B689B69BB61BB69F3
:10305000FB681B681A68FB681B6842F400721A6000
:1030600062B635E0FB681B8D022B1ED1FB681B6826
:103070001A68FB681B6842F400621A6072B600BFEF
:1030800000237B61FB681B685B697B61FB681B68D5
:103090009B697B617B69FB681B681A68FB681B681E
:1030A00022F480621A6062B612E0FB681B681A683C
:1030B000FB681B6842F480621A6000233B61FB6876
:1030C0001B685B693B61FB681B689B693B613B69F3
:1030D00066E1FB681B8D032B00F21F81FB681B8DD3
:1030E000012B23D17A6AB96BF86800F08BFC034698
:1030F000002B01D0012367E1FB681B681A69FB689C
:103100005B6AD2B21A70FB685B6A5A1CFB685A622F
:10311000FB681B8D013B9AB2FB681A85FB685B8DCF
:103120009BB2013B9AB2FB685A8539E1FB681B8D63
:10313000022B52D17B6A0093BB6B00220649F868D0
:1031400000F0B6FA0346002B08D001233CE100BF93
:10315000020010000000FFFF0400010072B600BF73
:10316000FB681B681A68FB681B6842F400721A60EF
:10317000FB681B681A69FB685B6AD2B21A70FB684D
:103180005B6A5A1CFB685A62FB681B8D013B9AB252
:10319000FB681A85FB685B8D9BB2013B9AB2FB68AA
:1031A0005A8562B600BFFB681B681A69FB685B6AD8
:1031B000D2B21A70FB685B6A5A1CFB685A62FB68E1
:1031C0001B8D013B9AB2FB681A85FB685B8D9BB235
:1031D000013B9AB2FB685A85E2E07B6A0093BB6BC5
:1031E00000227B49F86800F063FA0346002B01D007
:1031F0000123E9E0FB681B681A68FB681B6822F47E
:1032000080621A6072B600BFFB681B681A69FB68AF
:103210005B6AD2B21A70FB685B6A5A1CFB685A621E
:10322000FB681B8D013B9AB2FB681A85FB685B8DBE
:103230009BB2013B9AB2FB685A85664B1B68DB0860
:10324000654AA2FB03231A0A13469B001344DA00C3
:10325000D31A3B623B6A013B3B623B6A002B18D1AD
:10326000FB6800221A63FB68202283F83D20FB687C
:10327000002283F83E20FB681B6C43F02002FB68B1
:103280001A6462B600BFFB68002283F83C20012369
:103290009AE0FB681B685B6903F00403042BD9D137
:1032A000FB681B681A68FB681B6842F400721A60AE
:1032B000FB681B681A69FB685B6AD2B21A70FB680C
:1032C0005B6A5A1CFB685A62FB681B8D013B9AB211
:1032D000FB681A85FB685B8D9BB2013B9AB2FB6869
:1032E0005A8562B600BFFB681B681A69FB685B6A97
:1032F000D2B21A70FB685B6A5A1CFB685A62FB68A0
:103300001B8D013B9AB2FB681A85FB685B8D9BB2F3
:10331000013B9AB2FB685A8542E07A6AB96BF86859
:1033200000F070FB0346002B01D001234CE0FB684A
:103330001B681A69FB685B6AD2B21A70FB685B6A29
:103340005A1CFB685A62FB681B8D013B9AB2FB68F2
:103350001A85FB685B8D9BB2013B9AB2FB685A856C
:10336000FB681B685B6903F00403042B18D1FB683E
:103370001B681A69FB685B6AD2B21A70FB685B6AE9
:103380005A1CFB685A62FB681B8D013B9AB2FB68B2
:103390001A85FB685B8D9BB2013B9AB2FB685A852C
:1033A000FB681B8D002B7FF494AEFB68202283F812
:1033B0003D20FB68002283F83E20FB68002283F852
:1033C0003C20002300E0022318462837BD4680BD7C
:1033D000040001001400002089B5F81480B588B0FD
:1033E00002AFF8607A603B600B467B81FB68DB6A6A
:1033F0007B617B69082B06D07B69012B03D07B693D
:1034000013F5803F08D1FB681B681A68FB681B68CE
:1034100042F480721A600BE0FB681B6B122B07D121
:10342000FB681B681A68FB681B6842F480721A60AC
:103430003B6800937B6800224FF00111F86800F0B0
:1034400037F90346002B0DD0FB681B681B6803F49B
:103450008073B3F5807F03D1FB684FF400721A6468
:10346000032335E0FB681B69B3F5804F08D17B89E6
:10347000DBB21A46FB681B6802F0FE021A611BE011
:103480007B89DB11DBB203F00603DBB263F00F03D1
:10349000DAB2FB681B681A613B687A680E49F86803
:1034A00000F080F90346002B01D0012310E07B8956
:1034B000DAB2FB681B681A613B687A680749F868EA
:1034C00000F070F90346002B01D0012300E0002337
:1034D00018461837BD4680BD0800010002000100F3
:1034E00080B588B002AFF860084611461A46034618
:1034F0007B810B463B811346FB80FB681B681A6887
:10350000FB681B6842F480621A60FB681B681A68DB
:10351000FB681B6842F480721A607B6A00933B6A06
:1035200000224FF00111F86800F0C2F80346002BAA
:103530000DD0FB681B681B6803F48073B3F5807FB4
:1035400003D1FB684FF400721A640323AAE07B895D
:10355000DBB21A46FB681B6802F0FE021A617B6A46
:103560003A6A5249F86800F01DF90346002B01D071
:10357000012397E000237B61FB681B685B697B612B
:10358000FB681B689B697B617B697A6A396AF868AA
:1035900000F0A8F90346002B0DD0FB681B6C042B30
:1035A00007D1FB681B681A68FB681B6842F400724D
:1035B0001A60012376E0FB88012B05D13B89DAB242
:1035C000FB681B681A6121E03B891B0A9BB2DAB2D7
:1035D000FB681B681A617A6A396AF86800F082F938
:1035E0000346002B0DD0FB681B6C042B07D1FB6836
:1035F0001B681A68FB681B6842F400721A6001239A
:1036000050E03B89DAB2FB681B681A617A6A396A52
:10361000F86800F067F90346002B0DD0FB681B6CBF
:10362000042B07D1FB681B681A68FB681B6842F40F
:1036300000721A60012335E0FB681B681A68FB689A
:103640001B6842F480721A607B6A00933B6A002216
:103650004FF00111F86800F02BF80346002B0DD055
:10366000FB681B681B6803F48073B3F5807F03D18C
:10367000FB684FF400721A64032313E07B89DBB20A
:1036800043F00103DAB2FB681B681A617B6A3A6A8D
:103690000649F86800F086F80346002B01D00123A4
:1036A00000E0002318461837BD4680BD0200010027
:1036B00080B584B000AFF860B9603B601346FB7121
:1036C00048E03B68B3F1FF3F44D0FEF725FE0246D9
:1036D000BB69D31A3A689A4202D33B68002B39D1AE
:1036E000BB681B0CDBB2012B0DD1FB681B685B694F
:1036F000DA43BB6813409BB2002B0CBF01230023AD
:10370000DBB21A460CE0FB681B689B69DA43BB68B6
:1037100013409BB2002B0CBF01230023DBB21A46DF
:10372000FB799A4216D1FB6800221A63FB682022BB
:1037300083F83D20FB68002283F83E20FB681B6C69
:1037400043F02002FB681A64FB68002283F83C20E7
:10375000012323E0BB681B0CDBB2012B0DD1FB68FE
:103760001B685B69DA43BB6813409BB2002B0CBF3C
:1037700001230023DBB21A460CE0FB681B689B693F
:10378000DA43BB6813409BB2002B0CBF012300231C
:10379000DBB21A46FB799A4293D0002318461037C1
:1037A000BD4680BD80B584B000AFF860B9607A6076
:1037B0003B6071E0FB681B685B6903F48063B3F5F1
:1037C000806F23D1FB681B681A68FB681B6842F492
:1037D00000721A60FB681B686FF480625A61FB68B4
:1037E00000221A63FB68202283F83D20FB68002238
:1037F00083F83E20FB681B6C43F00402FB681A64EC
:10380000FB68002283F83C20012367E07B68B3F16A
:10381000FF3F41D0FEF780FD02463B68D31A7A682D
:103820009A4202D37B68002B36D1BB681B0CDBB2FB
:10383000012B0CD1FB681B685B69DA43BB68134042
:103840009BB2002B14BF01230023DBB20BE0FB680B
:103850001B689B69DA43BB6813409BB2002B14BF03
:1038600001230023DBB2002B16D0FB6800221A6371
:10387000FB68202283F83D20FB68002283F83E206D
:10388000FB681B6C43F02002FB681A64FB68002293
:1038900083F83C20012321E0BB681B0CDBB2012B29
:1038A0000CD1FB681B685B69DA43BB6813409BB2B1
:1038B000002B14BF01230023DBB20BE0FB681B6865
:1038C0009B69DA43BB6813409BB2002B14BF0123F2
:1038D0000023DBB2002B7FF46DAF002318461037B6
:1038E000BD4680BD80B584B000AFF860B9607A6035
:1038F00034E0F86800F0E3F80346002B01D0012320
:1039000034E0BB68B3F1FF3F28D0FEF705FD024667
:103910007B68D31ABA689A4202D3BB68002B1DD1C8
:10392000FB681B685B6903F08003802B16D0FB6883
:1039300000221A63FB68202283F83D20FB680022E6
:1039400083F83E20FB681B6C43F02002FB681A647E
:10395000FB68002283F83C20012307E0FB681B681A
:103960005B6903F08003802BC3D100231846103716
:10397000BD4680BD80B584B000AFF860B9607A60A4
:1039800034E0F86800F09BF80346002B01D00123D7
:1039900034E0BB68B3F1FF3F28D0FEF7BDFC024620
:1039A0007B68D31ABA689A4202D3BB68002B1DD138
:1039B000FB681B685B6903F00403042B16D0FB68EB
:1039C00000221A63FB68202283F83D20FB68002256
:1039D00083F83E20FB681B6C43F02002FB681A64EE
:1039E000FB68002283F83C20012307E0FB681B688A
:1039F0005B6903F00403042BC3D10023184610377E
:103A0000BD4680BD80B584B000AFF860B9607A6013
:103A100049E0FB681B685B6903F01003102B19D1A8
:103A2000FB681B686FF010025A61FB6800221A6382
:103A3000FB68202283F83D20FB68002283F83E20AB
:103A4000FB681A6CFB681A64FB68002283F83C2050
:103A5000012330E0FEF760FC02467B68D31ABA68A7
:103A60009A4202D3BB68002B1DD1FB681B685B69BF
:103A700003F04003402B16D0FB6800221A63FB685A
:103A8000202283F83D20FB68002283F83E20FB685B
:103A90001B6C43F02002FB681A64FB68002283F869
:103AA0003C20012307E0FB681B685B6903F04003CF
:103AB000402BAED1002318461037BD4680BD80B4E0
:103AC00083B000AF78607B681B685B6903F4806338
:103AD000B3F5806F1BD17B681B686FF480625A61FD
:103AE0007B6800221A637B68202283F83D207B6874
:103AF000002283F83E207B681B6C43F004027B6845
:103B00001A647B68002283F83C20012300E0002334
:103B100018460C37BD4680BC7047000080B586B0A3
:103B200000AF78607B68002B01D1012372E27B68D3
:103B30001B6803F00103002B00F08780924B5B6849
:103B400003F00C03042B0CD08F4B5B6803F00C03C9
:103B5000082B12D18C4B5B6803F48033B3F5803FA4
:103B60000BD1894B1B6803F40033002B6CD07B68AE
:103B70005B68002B68D101234CE27B685B68B3F57E
:103B8000803F06D1804B1B687F4A43F4803313602B
:103B90002EE07B685B68002B0CD17B4B1B687A4A5C
:103BA00023F480331360784B1B68774A23F4802317
:103BB00013601DE07B685B68B3F5A02F0CD1724BDE
:103BC0001B68714A43F4802313606F4B1B686E4A75
:103BD00043F4803313600BE06B4B1B686A4A23F499
:103BE00080331360684B1B68674A23F4802313609B
:103BF0007B685B68002B13D0FEF78EFB386108E012
:103C0000FEF78AFB02463B69D31A642B01D90323D2
:103C100000E25D4B1B6803F40033002BF0D014E08E
:103C2000FEF77AFB386108E0FEF776FB02463B6957
:103C3000D31A642B01D90323ECE1534B1B6803F423
:103C40000033002BF0D100E000BF7B681B6803F05D
:103C50000203002B63D04C4B5B6803F00C03002B7A
:103C60000BD0494B5B6803F00C03082B1CD1464B6F
:103C70005B6803F48033002B16D1434B1B6803F0C1
:103C80000203002B05D07B681B69012B01D00123A7
:103C9000C0E13D4B1B6823F0F8027B685B69DB00E9
:103CA000394913430B603AE07B681B69002B20D035
:103CB000364B01221A60FEF72FFB386108E0FEF751
:103CC0002BFB02463B69D31A022B01D90323A1E146
:103CD0002D4B1B6803F00203002BF0D02A4B1B680E
:103CE00023F0F8027B685B69DB00274913430B6014
:103CF00015E0264B00221A60FEF70EFB386108E043
:103D0000FEF70AFB02463B69D31A022B01D90323B3
:103D100080E11D4B1B6803F00203002BF0D17B6890
:103D20001B6803F00803002B3AD07B689B69002BCB
:103D300019D0174B01221A60FEF7EEFA386108E03D
:103D4000FEF7EAFA02463B69D31A022B01D9032394
:103D500060E10D4B5B6A03F00203002BF0D0012001
:103D600000F0FEFA1CE00A4B00221A60FEF7D4FABB
:103D700038610FE0FEF7D0FA02463B69D31A022BF6
:103D800008D9032346E100BF001002400000424270
:103D900080044242924B5B6A03F00203002BE9D19C
:103DA0007B681B6803F00403002B00F0A68000234F
:103DB000FB758B4BDB6903F08053002B0DD1884BD7
:103DC000DB69874A43F08053D361854BDB6903F09D
:103DD0008053BB60BB680123FB75824B1B6803F4F7
:103DE0008073002B18D17F4B1B687E4A43F480738D
:103DF0001360FEF791FA386108E0FEF78DFA02468B
:103E00003B69D31A642B01D9032303E1754B1B686B
:103E100003F48073002BF0D07B68DB68012B06D1A4
:103E20006F4B1B6A6E4A43F0010313622DE07B68FF
:103E3000DB68002B0CD16A4B1B6A694A23F0010333
:103E40001362674B1B6A664A23F0040313621CE08B
:103E50007B68DB68052B0CD1614B1B6A604A43F021
:103E6000040313625E4B1B6A5D4A43F00103136255
:103E70000BE05B4B1B6A5A4A23F001031362584B59
:103E80001B6A574A23F0040313627B68DB68002B2C
:103E900015D0FEF741FA38610AE0FEF73DFA024616
:103EA0003B69D31A41F28832934201D90323B1E02E
:103EB0004B4B1B6A03F00203002BEED014E0FEF71D
:103EC0002BFA38610AE0FEF727FA02463B69D31A5B
:103ED00041F28832934201D903239BE0404B1B6A95
:103EE00003F00203002BEED1FB7D012B05D13C4BEF
:103EF000DB693B4A23F08053D3617B68DB69002B8D
:103F000000F08780364B5B6803F00C03082B61D010
:103F10007B68DB69022B46D1334B00221A60FEF727
:103F2000FBF9386108E0FEF7F7F902463B69D31A5E
:103F3000022B01D903236DE0294B1B6803F00073AA
:103F4000002BF0D17B681B6AB3F5803F08D1244B6E
:103F50005B6823F400327B689B68214913434B6004
:103F60001F4B5B6823F474127B68196A7B685B6A79
:103F70000B431B4913434B601B4B01221A60FEF796
:103F8000CBF9386108E0FEF7C7F902463B69D31A5E
:103F9000022B01D903233DE0114B1B6803F0007392
:103FA000002BF0D035E0104B00221A60FEF7B4F978
:103FB000386108E0FEF7B0F902463B69D31A022BDC
:103FC00001D9032326E0064B1B6803F00073002B86
:103FD000F0D11EE07B68DB69012B07D1012319E0DA
:103FE0000010024000700040600042420B4B5B68D2
:103FF000FB60FB6803F480327B681B6A9A4206D13F
:10400000FB6803F470127B685B6A9A4201D001235B
:1040100000E0002318461837BD4680BD001002405E
:1040200080B584B000AF786039607B68002B01D127
:104030000123D0E06A4B1B6803F007033A689A42F9
:1040400010D9674B1B6823F0070265493B6813438F
:104050000B60634B1B6803F007033A689A4201D078
:104060000123B8E07B681B6803F00203002B20D01B
:104070007B681B6803F00403002B05D0594B5B6879
:10408000584A43F4E06353607B681B6803F00803FD
:10409000002B05D0534B5B68524A43F46053536086
:1040A000504B5B6823F0F0027B689B684D491343DB
:1040B0004B607B681B6803F00103002B40D07B68DA
:1040C0005B68012B07D1474B1B6803F40033002BBF
:1040D00015D101237FE07B685B68022B07D1414B40
:1040E0001B6803F00073002B09D1012373E03D4BE3
:1040F0001B6803F00203002B01D101236BE0394B55
:104100005B6823F003027B685B68364913434B60AE
:10411000FEF702F9F8600AE0FEF7FEF80246FB68D7
:10412000D31A41F28832934201D9032353E02D4B35
:104130005B6803F00C027B685B689B009A42EBD1E2
:10414000274B1B6803F007033A689A4210D2244BAE
:104150001B6823F0070222493B6813430B60204B86
:104160001B6803F007033A689A4201D0012332E04A
:104170007B681B6803F00403002B08D0194B5B68B5
:1041800023F4E0627B68DB68164913434B607B686D
:104190001B6803F00803002B09D0124B5B6823F463
:1041A00060527B681B69DB000E4913434B6000F0D3
:1041B00021F802460B4B5B681B0903F00F030A4909
:1041C000CB5C22FA03F3094A1360094B1B681846BB
:1041D000FDF7E2FB002318461037BD4680BD00BF47
:1041E0000020024000100240D4AF0008140000205C
:1041F0001800002080B487B000AF0023FB600023CC
:10420000BB6000237B6100237B6000233B611E4B6E
:104210005B68FB60FB6803F00C03042B02D0082BE7
:1042200003D027E0194B3B6127E0FB689B0C03F0B0
:104230000F03174AD35C7B60FB6803F48033002BC9
:1042400010D0114B5B685B0C03F00103114AD35C87
:10425000BB607B680D4A03FB02F2BB68B2FBF3F361
:104260007B6104E07B680C4A02FB03F37B617B69A2
:104270003B6102E0054B3B6100BF3B6918461C37C0
:10428000BD4680BC704700BF0010024000127A009B
:10429000ECAF0008FCAF000800093D0080B400AF9F
:1042A000024B1B681846BD4680BC704714000020B6
:1042B00080B500AFFFF7F2FF0246054B5B681B0AB3
:1042C00003F007030349CB5C22FA03F3184680BDD1
:1042D00000100240E4AF000880B500AFFFF7DEFF3A
:1042E0000246054B5B68DB0A03F007030349CB5C1E
:1042F00022FA03F3184680BD00100240E4AF000824
:1043000080B483B000AF786039607B680F221A6098
:10431000114B5B6803F003027B685A600E4B5B68CD
:1043200003F0F0027B689A600B4B5B6803F4E06279
:104330007B68DA60084B5B68DB0803F4E0627B684B
:104340001A61064B1B6803F007023B681A6000BF46
:104350000C37BD4680BC7047001002400020024070
:1043600080B485B000AF78600A4B1B680A4AA2FB94
:1043700003235B0A7A6802FB03F3FB6000BFFB6860
:104380005A1EFA60002BF9D100BF00BF1437BD469A
:1043900080BC704714000020D34D621080B586B0F9
:1043A00000AF786000233B610023FB607B681B68E3
:1043B00003F00103002B7DD00023FB754F4BDB691D
:1043C00003F08053002B0DD14C4BDB694B4A43F07B
:1043D0008053D361494BDB6903F08053BB60BB68FA
:1043E0000123FB75464B1B6803F48073002B18D127
:1043F000434B1B68424A43F480731360FDF78CFF04
:10440000386108E0FDF788FF02463B69D31A642B48
:1044100001D903236DE03A4B1B6803F48073002B32
:10442000F0D0364B1B6A03F44073FB60FB68002B33
:104430002ED07B685B6803F44073FA689A4227D0F9
:104440002E4B1B6A23F44073FB602E4B01221A6033
:104450002C4B00221A60294AFB681362FB6803F0A8
:104460000103002B14D0FDF757FF38610AE0FDF778
:1044700053FF02463B69D31A41F28832934201D975
:10448000032336E01D4B1B6A03F00203002BEED022
:104490001A4B1B6A23F440727B685B68174913430D
:1044A0000B62FB7D012B05D1144BDB69134A23F012
:1044B0008053D3617B681B6803F00203002B08D094
:1044C0000E4B5B6823F440427B689B680B491343A7
:1044D0004B607B681B6803F01003002B08D0074B70
:1044E0005B6823F480027B68DB68044913434B60FC
:1044F000002318461837BD4680BD00BF001002409B
:10450000007000404004424280B582B000AF786045
:104510007B68002B01D1012341E07B6893F83D309B
:10452000DBB2002B06D17B68002283F83C20786840
:10453000FDF7C2F97B68022283F83D207B681A6888
:104540007B6804331946104600F0BEFA7B680122EE
:1045500083F846207B68012283F83E207B68012295
:1045600083F83F207B68012283F840207B6801228A
:1045700083F841207B68012283F842207B68012276
:1045800083F843207B68012283F844207B68012262
:1045900083F845207B68012283F83D2000231846DC
:1045A0000837BD4680BD000080B485B000AF78609C
:1045B0007B6893F83D30DBB2012B01D0012332E060
:1045C0007B68022283F83D207B681B68184A93426F
:1045D0000ED07B681B68B3F1804F09D07B681B68E5
:1045E000144A934204D07B681B68134A934211D14A
:1045F0007B681B689B6803F00703FB60FB68062B66
:1046000010D07B681B681A687B681B6842F0010247
:104610001A6007E07B681B681A687B681B6842F0B9
:1046200001021A60002318461437BD4680BC70474B
:10463000002C0140000400400008004080B485B018
:1046400000AF78607B6893F83D30DBB2012B01D07E
:1046500001233AE07B68022283F83D207B681B68D7
:10466000DA687B681B6842F00102DA607B681B68CD
:10467000184A93420ED07B681B68B3F1804F09D073
:104680007B681B68144A934204D07B681B68134AFA
:10469000934211D17B681B689B6803F00703FB60A2
:1046A000FB68062B10D07B681B681A687B681B6848
:1046B00042F001021A6007E07B681B681A687B6899
:1046C0001B6842F001021A60002318461437BD46E9
:1046D00080BC7047002C01400004004000080040EE
:1046E00080B582B000AF78607B681B681B6903F0FF
:1046F0000203022B22D17B681B68DB6803F00203F4
:10470000022B1BD17B681B686FF002021A617B6869
:1047100001221A777B681B689B6903F00303002B57
:1047200003D0786800F0B4F905E0786800F0A7F9E4
:10473000786800F0B6F97B6800221A777B681B68FE
:104740001B6903F00403042B22D17B681B68DB6820
:1047500003F00403042B1BD17B681B686FF0040279
:104760001A617B6802221A777B681B689B6903F4D5
:104770004073002B03D0786800F08AF905E0786870
:1047800000F07DF9786800F08CF97B6800221A77D8
:104790007B681B681B6903F00803082B22D17B6828
:1047A0001B68DB6803F00803082B1BD17B681B68C0
:1047B0006FF008021A617B6804221A777B681B6815
:1047C000DB6903F00303002B03D0786800F060F985
:1047D00005E0786800F053F9786800F062F97B68CA
:1047E00000221A777B681B681B6903F01003102BEB
:1047F00022D17B681B68DB6803F01003102B1BD1F0
:104800007B681B686FF010021A617B6808221A77B8
:104810007B681B68DB6903F44073002B03D0786866
:1048200000F036F905E0786800F029F9786800F0C2
:1048300038F97B6800221A777B681B681B6903F0D4
:104840000103012B0ED17B681B68DB6803F00103B9
:10485000012B07D17B681B686FF001021A61786831
:10486000FCF79CFF7B681B681B6903F08003802BAF
:104870000ED17B681B68DB6803F08003802B07D1B7
:104880007B681B686FF080021A61786800F07BFA21
:104890007B681B681B6903F04003402B0ED17B68CB
:1048A0001B68DB6803F04003402B07D17B681B6863
:1048B0006FF040021A61786800F0FCF87B681B68B2
:1048C0001B6903F02003202B0ED17B681B68DB687B
:1048D00003F02003202B07D17B681B686FF02002B8
:1048E0001A61786800F046FA00BF0837BD4680BDFF
:1048F00080B584B000AF786039600023FB737B68BB
:1049000093F83C30012B01D10223B4E07B680122F3
:1049100083F83C207B68022283F83D207B681B687B
:104920009B68BB60BB6823F07703BB60BB6823F464
:104930007F43BB607B681B68BA689A603B681B68F2
:10494000B3F5005F3ED0B3F5005F00F28780B3F5AA
:10495000805F00F08680B3F5805F7FD8702B1AD01F
:10496000702B7BD8602B50D0602B77D8502B3CD04D
:10497000502B73D8402B58D0402B6FD8302B64D09D
:10498000302B6BD8202B60D0202B67D8002B5CD02D
:10499000102B5AD062E07B6818683B6899683B68C6
:1049A0005A683B68DB6800F068F97B681B689B68A5
:1049B000BB60BB6843F07703BB607B681B68BA6869
:1049C0009A604FE07B6818683B6899683B685A6852
:1049D0003B68DB6800F051F97B681B689A687B686C
:1049E0001B6842F480429A603CE07B6818683B6830
:1049F00059683B68DB681A4600F0C8F87B681B689A
:104A00005021184600F01FF92CE07B6818683B68BD
:104A100059683B68DB681A4600F0E6F87B681B685B
:104A20006021184600F00FF91CE07B6818683B68AD
:104A300059683B68DB681A4600F0A8F87B681B6879
:104A40004021184600F0FFF80CE07B681A683B68CC
:104A50001B681946104600F0F6F803E00123FB73CB
:104A600000E000BF7B68012283F83D207B680022C4
:104A700083F83C20FB7B18461037BD4680BD80B4D0
:104A800083B000AF786000BF0C37BD4680BC704774
:104A900080B483B000AF786000BF0C37BD4680BCE7
:104AA000704780B483B000AF786000BF0C37BD465C
:104AB00080BC704780B483B000AF786000BF0C3713
:104AC000BD4680BC7047000080B485B000AF786000
:104AD00039607B681B68FB607B68294A93420BD076
:104AE0007B68B3F1804F07D07B68264A934203D09E
:104AF0007B68254A934208D1FB6823F07003FB6072
:104B00003B685B68FA681343FB607B681C4A93420E
:104B10000BD07B68B3F1804F07D07B68194A934272
:104B200003D07B68184A934208D1FB6823F4407392
:104B3000FB603B68DB68FA681343FB60FB6823F0AB
:104B400080023B685B691343FB607B68FA681A600C
:104B50003B689A687B68DA623B681A687B689A628D
:104B60007B68074A934203D13B681A697B681A63E2
:104B70007B6801225A6100BF1437BD4680BC704774
:104B8000002C0140000400400008004080B487B0C1
:104B900000AFF860B9607A60FB681B6A7B61FB68F4
:104BA0001B6A23F00102FB681A62FB689B693B6188
:104BB0003B6923F0F0033B617B681B013A691343B7
:104BC0003B617B6923F00A037B617A69BB6813430D
:104BD0007B61FB683A699A61FB687A691A6200BF77
:104BE0001C37BD4680BC704780B487B000AFF8600A
:104BF000B9607A60FB681B6A7B61FB681B6A23F003
:104C00001002FB681A62FB689B693B613B6923F4F5
:104C100070433B617B681B033A6913433B617B69CB
:104C200023F0A0037B61BB681B017A6913437B619E
:104C3000FB683A699A61FB687A691A6200BF1C379F
:104C4000BD4680BC704780B485B000AF78603960E5
:104C50007B689B68FB60FB6823F07003FB603A682D
:104C6000FB68134343F00703FB607B68FA689A60B4
:104C700000BF1437BD4680BC704780B487B000AF1A
:104C8000F860B9607A603B60FB689B687B617B6918
:104C900023F47F437B613B681A027B681A43BB683D
:104CA00013437A6913437B61FB687A699A6000BF9A
:104CB0001C37BD4680BC704780B485B000AF7860BB
:104CC00039607B6893F83C30012B01D1022346E028
:104CD0007B68012283F83C207B68022283F83D2018
:104CE0007B681B685B68FB607B681B689B68BB60BC
:104CF000FB6823F07003FB603B681B68FA68134392
:104D0000FB607B681B68FA685A607B681B68164A00
:104D100093420ED07B681B68B3F1804F09D07B684B
:104D20001B68124A934204D07B681B68104A934266
:104D30000CD1BB6823F08003BB603B685B68BA683A
:104D40001343BB607B681B68BA689A607B6801226A
:104D500083F83D207B68002283F83C20002318461E
:104D60001437BD4680BC7047002C01400004004051
:104D70000008004080B483B000AF786000BF0C37FB
:104D8000BD4680BC704780B483B000AF786000BF80
:104D90000C37BD4680BC704780B582B000AF7860EC
:104DA0007B68002B01D1012342E07B6893F84130FE
:104DB000DBB2002B06D17B68002283F840207868A4
:104DC000FCF796FD7B68242283F841207B681B68F2
:104DD000DA687B681B6822F40052DA60786800F0B9
:104DE000C5FD7B681B681A697B681B6822F49042CA
:104DF0001A617B681B685A697B681B6822F02A026B
:104E00005A617B681B68DA687B681B6842F4005251
:104E1000DA607B6800225A647B68202283F8412094
:104E20007B68202283F842207B6800225A6300239B
:104E300018460837BD4680BD80B58AB002AFF8601D
:104E4000B9603B601346FB8000237B61FB6893F8ED
:104E50004130DBB2202B6DD1BB68002B02D0FB8828
:104E6000002B01D1012366E0FB6800225A64FB6835
:104E7000212283F84120FDF74FFA7861FB68FA8818
:104E80009A84FB68FA88DA84FB689B68B3F5805FD4
:104E900008D1FB681B69002B04D10023FB61BB68B0
:104EA000BB6103E0BB68FB610023BB612AE03B6898
:104EB00000937B6900228021F86800F014FB034610
:104EC000002B01D0032336E0FB69002B0BD1BB691B
:104ED0001B881A46FB681B68C2F308025A60BB694C
:104EE0000233BB6107E0FB691A78FB681B685A60F4
:104EF000FB690133FB61FB68DB8C9BB2013B9AB21F
:104F0000FB68DA84FB68DB8C9BB2002BCFD13B685B
:104F100000937B6900224021F86800F0E4FA034620
:104F2000002B01D0032306E0FB68202283F84120F8
:104F3000002300E0022318462037BD4680BD80B51F
:104F400084B000AFF860B9601346FB80FB6893F84B
:104F50004230DBB2202B12D1BB68002B02D0FB8881
:104F6000002B01D101230BE0FB6800221A63FB88B0
:104F70001A46B968F86800F024FB034600E00223F3
:104F800018461037BD4680BD80B5BAB000AF786016
:104F90007B681B681B68C7F8E4307B681B68DB68AC
:104FA000C7F8E0307B681B685B69C7F8DC3000231A
:104FB000C7F8D8300023C7F8D430D7F8E43003F06E
:104FC0000F03C7F8D830D7F8D830002B0FD1D7F857
:104FD000E43003F02003002B09D0D7F8E03003F0D1
:104FE0002003002B03D0786800F001FC5BE2D7F8C7
:104FF000D830002B00F0DE80D7F8DC3003F001035E
:10500000002B06D1D7F8E03003F49073002B00F0AA
:10501000D180D7F8E43003F00103002B0BD0D7F890
:10502000E03003F48073002B05D07B685B6C43F0A9
:1050300001027B685A64D7F8E43003F00403002BC4
:105040000BD0D7F8DC3003F00103002B05D07B68D0
:105050005B6C43F002027B685A64D7F8E43003F0DB
:105060000203002B0BD0D7F8DC3003F00103002B38
:1050700005D07B685B6C43F004027B685A64D7F808
:10508000E43003F00803002B11D0D7F8E03003F030
:105090002003002B05D1D7F8DC3003F00103002BEF
:1050A00005D07B685B6C43F008027B685A647B68C0
:1050B0005B6C002B00F0F281D7F8E43003F02003A2
:1050C000002B08D0D7F8E03003F02003002B02D0EB
:1050D000786800F08CFB7B681B685B6903F0400319
:1050E000002B14BF01230023DBB2C7F8D4307B6848
:1050F0005B6C03F00803002B03D1D7F8D430002BEE
:105100004FD0786800F096FA7B681B685B6903F003
:105110004003002B41D07B681B681433C7F89C30D8
:10512000D7F89C3053E8003FC7F89830D7F898304C
:1051300023F04003C7F8D0307B681B681433D7F8DE
:10514000D020C7F8A820C7F8A430D7F8A410D7F803
:10515000A82041E80023C7F8A030D7F8A030002BE2
:10516000D9D17B68DB6B002B13D07B68DB6B7E4A6D
:105170005A637B68DB6B1846FDF742FA0346002B47
:1051800016D07B68DB6B5B6B7A68D26B10469847F6
:105190000EE0786800F093F90AE0786800F08FF983
:1051A00006E0786800F08BF97B6800225A6475E1AC
:1051B00000BF73E17B681B6B012B40F04F81D7F878
:1051C000E43003F01003002B00F04881D7F8E03002
:1051D00003F01003002B00F041810023BB607B68CB
:1051E0001B681B68BB607B681B685B68BB60BB6837
:1051F0007B681B685B6903F04003002B00F0B680FE
:105200007B68DB6B1B685B68A7F8BE30B7F8BE3005
:10521000002B00F045817B689B8DB7F8BE209A4239
:1052200080F03E817B68B7F8BE20DA857B68DB6B57
:105230009B69202B00F088807B681B680C33C7F8C3
:105240008830D7F8883053E8003FC7F88430D7F863
:10525000843023F48073C7F8B8307B681B680C3344
:10526000D7F8B820C7F89420C7F89030D7F8901036
:10527000D7F8942041E80023C7F88C30D7F88C3059
:10528000002BD9D17B681B6814337B677B6F53E895
:10529000003F3B673B6F23F00103C7F8B4307B68E6
:1052A0001B681433D7F8B420C7F88020FB67F96F68
:1052B000D7F8802041E80023BB67BB6F002BE1D10A
:1052C0007B681B6814333B663B6E53E8003FFB650D
:1052D000FB6D23F04003C7F8B0307B681B681433C4
:1052E000D7F8B020FA66BB66B96EFA6E41E80023C3
:1052F0007B667B6E002BE3D17B68202283F8422003
:105300007B6800221A637B681B680C33FB64FB6CB0
:1053100053E8003FBB64BB6C23F01003C7F8AC300C
:105320007B681B680C33D7F8AC20BA657B65796D58
:10533000BA6D41E800233B653B6D002BE3D17B68F0
:10534000DB6B1846FDF721F97B6802225A637B6804
:105350009A8D7B68DB8D9BB2D31A9BB21946786815
:1053600000F0B6F89CE000BFF95600087B689A8D03
:105370007B68DB8D9BB2D31AA7F8CE307B68DB8DC0
:105380009BB2002B00F08E80B7F8CE30002B00F0DF
:1053900089807B681B680C33BB63BB6B53E8003FA1
:1053A0007B637B6B23F49073C7F8C8307B681B6802
:1053B0000C33D7F8C8207A643B64396C7A6C41E8C6
:1053C0000023FB63FB6B002BE3D17B681B6814336A
:1053D0007B627B6A53E8003F3B623B6A23F0010338
:1053E000C7F8C4307B681B681433D7F8C4203A630D
:1053F000FB62F96A3A6B41E80023BB62BB6A002B8F
:10540000E3D17B68202283F842207B6800221A6364
:105410007B681B680C333B613B6953E8003FFB60D2
:10542000FB6823F01003C7F8C0307B681B680C339F
:10543000D7F8C020FA61BB61B969FA6941E8002375
:105440007B617B69002BE3D17B6802225A63B7F84A
:10545000CE301946786800F03BF823E0D7F8E43006
:1054600003F08003002B09D0D7F8E03003F080036D
:10547000002B03D0786800F053F914E0D7F8E4303B
:1054800003F04003002B0ED0D7F8E03003F04003C8
:10549000002B08D0786800F092F904E000BF02E029
:1054A00000BF00E000BFE837BD4680BD80B483B0D8
:1054B00000AF786000BF0C37BD4680BC704780B439
:1054C00083B000AF786000BF0C37BD4680BC70472A
:1054D00080B483B000AF78600B467B8000BF0C3790
:1054E000BD4680BC704780B590B000AFF860B96031
:1054F0003B601346FB7150E0BB6CB3F1FF3F4CD0F7
:10550000BB6C002B07D0FCF707FF02463B68D31AA1
:10551000BA6C9A4241D2FB681B680C33BB62BB6A0F
:1055200053E8003F7B627B6A23F4D073FB63FB6824
:105530001B680C33FA6B7A633B63396B7A6B41E817
:105540000023FB62FB6A002BE5D1FB681B68143368
:105550007B617B6953E8003F3B613B6923F00103BA
:10556000BB63FB681B681433BA6B3A62FB61F96971
:105570003A6A41E80023BB61BB69002BE5D1FB68B7
:10558000202283F84120FB68202283F84220FB6818
:10559000002283F8402003230FE0FB681B681A6891
:1055A000BB681340BA689A420CBF01230023DBB2E8
:1055B0001A46FB799A429FD0002318464037BD46D1
:1055C00080BD80B485B000AFF860B9601346FB8041
:1055D000FB68BA689A62FB68FA889A85FB68FA8861
:1055E000DA85FB6800225A64FB68222283F8422095
:1055F000FB681B69002B07D0FB681B68DA68FB6837
:105600001B6842F48072DA60FB681B685A69FB68A9
:105610001B6842F001025A61FB681B68DA68FB688C
:105620001B6842F02002DA60002318461437BD469A
:1056300080BC704780B495B000AF78607B681B6811
:105640000C337B637B6B53E8003F3B633B6B23F482
:105650009073FB647B681B680C33FA6C3A64FB63E1
:10566000F96B3A6C41E80023BB63BB6B002BE5D1BF
:105670007B681B6814333B623B6A53E8003FFB6165
:10568000FB6923F00103BB647B681B681433BA6CAD
:10569000FA62BB62B96AFA6A41E800237B627B6AFC
:1056A000002BE5D17B681B6B012B19D17B681B6834
:1056B0000C33FB60FB6853E8003FBB60BB6823F022
:1056C00010037B647B681B680C337A6CBA617B6166
:1056D0007969BA6941E800233B613B69002BE5D158
:1056E0007B68202283F842207B6800221A6300BF77
:1056F0005437BD4680BC704780B584B000AF786039
:105700007B685B6AFB60FB680022DA85FB6800222D
:10571000DA84F868FFF7D3FE00BF1037BD4680BDBE
:1057200080B485B000AF78607B6893F84130DBB21D
:10573000212B3ED17B689B68B3F5805F14D17B68D9
:105740001B69002B10D17B681B6AFB60FB681B8800
:105750001A467B681B68C2F308025A607B681B6AA2
:105760009A1C7B681A6208E07B681B6A591C7A687D
:1057700011621A787B681B685A607B68DB8C9BB26D
:10578000013B9BB27A681946D184002B0FD17B680C
:105790001B68DA687B681B6822F08002DA607B682D
:1057A0001B68DA687B681B6842F04002DA600023FD
:1057B00000E0022318461437BD4680BC704780B510
:1057C00082B000AF78607B681B68DA687B681B6812
:1057D00022F04002DA607B68202283F8412078685A
:1057E000FFF764FE002318460837BD4680BD80B52C
:1057F0008CB000AF78607B6893F84230DBB2222B2C
:1058000040F0AE807B689B68B3F5805F17D17B6802
:105810001B69002B13D10023FB627B689B6ABB6270
:105820007B681B685B689BB2C3F308039AB2BB6AD0
:105830001A807B689B6A9A1C7B689A6226E07B6868
:105840009B6AFB620023BB627B689B68B3F5805F49
:1058500007D07B689B68002B0AD17B681B69002BF3
:1058600006D17B681B685B68DAB2FB6A1A7008E0D5
:105870007B681B685B68DBB203F07F03DAB2FB6A0C
:105880001A707B689B6A5A1C7B689A627B68DB8D06
:105890009BB2013B9BB27A681946D185002B5DD142
:1058A0007B681B68DA687B681B6822F02002DA607C
:1058B0007B681B68DA687B681B6822F48072DA6098
:1058C0007B681B685A697B681B6822F001025A6179
:1058D0007B68202283F842207B6800225A637B6821
:1058E0001B6B012B35D17B6800221A637B681B6818
:1058F0000C337B617B6953E8003F3B613B6923F0DC
:1059000010037B627B681B680C337A6A3A62FB6126
:10591000F9693A6A41E80023BB61BB69002BE5D114
:105920007B681B681B6803F01003102B0AD100234F
:10593000FB607B681B681B68FB607B681B685B689F
:10594000FB60FB687B689B8D19467868FFF7C0FD9C
:1059500002E07868FBF7FEFC002302E0002300E091
:10596000022318463037BD4680BD000080B584B0A4
:1059700000AF78607B681B681B6923F440517B682B
:10598000DA687B681B680A431A617B689A687B68DF
:105990001B691A437B685B691343BB607B681B68A8
:1059A000DB6823F4B05323F00C037A681268B968FB
:1059B0000B43D3607B681B685B6923F440717B6891
:1059C0009A697B681B680A435A617B681B682C4A8A
:1059D000934203D1FEF780FCF86002E0FEF768FC1A
:1059E000F860FA6813469B0013449A001A447B68D7
:1059F0005B689B00B2FBF3F3224AA2FB03235B0923
:105A00001901FA6813469B0013449A001A447B68F4
:105A10005B689B00B2FBF3F21A4BA3FB02035B092A
:105A2000642000FB03F3D31A1B013233154AA2FB97
:105A300003235B0903F0F0031944FA6813469B0043
:105A400013449A001A447B685B689B00B2FBF3F234
:105A50000C4BA3FB02035B09642000FB03F3D31A86
:105A60001B013233074AA2FB03235B0903F00F0239
:105A70007B681B680A449A6000BF1037BD4680BD32
:105A8000003801401F85EB5180B485B000AF03465C
:105A9000FB800023FB60B7F90630842B05D0B7F9F3
:105AA0000620FB6813440333FB60FB681846143779
:105AB000BD4680BC704780B483B000AFEFF3058370
:105AC0007B607B68002B14BF01230023DBB21846E8
:105AD0000C37BD4680BC704780B500AF01F036F989
